{
  "_format": "hh-sol-artifact-1",
  "contractName": "NFT",
  "sourceName": "contracts/NFT.sol",
  "abi": [
    {
      "inputs": [],
      "stateMutability": "nonpayable",
      "type": "constructor"
    },
    {
      "anonymous": false,
      "inputs": [
        {
          "indexed": true,
          "internalType": "address",
          "name": "owner",
          "type": "address"
        },
        {
          "indexed": true,
          "internalType": "address",
          "name": "approved",
          "type": "address"
        },
        {
          "indexed": true,
          "internalType": "uint256",
          "name": "tokenId",
          "type": "uint256"
        }
      ],
      "name": "Approval",
      "type": "event"
    },
    {
      "anonymous": false,
      "inputs": [
        {
          "indexed": true,
          "internalType": "address",
          "name": "owner",
          "type": "address"
        },
        {
          "indexed": true,
          "internalType": "address",
          "name": "operator",
          "type": "address"
        },
        {
          "indexed": false,
          "internalType": "bool",
          "name": "approved",
          "type": "bool"
        }
      ],
      "name": "ApprovalForAll",
      "type": "event"
    },
    {
      "anonymous": false,
      "inputs": [
        {
          "indexed": true,
          "internalType": "address",
          "name": "from",
          "type": "address"
        },
        {
          "indexed": true,
          "internalType": "address",
          "name": "to",
          "type": "address"
        },
        {
          "indexed": true,
          "internalType": "uint256",
          "name": "tokenId",
          "type": "uint256"
        }
      ],
      "name": "Transfer",
      "type": "event"
    },
    {
      "inputs": [
        {
          "internalType": "address",
          "name": "to",
          "type": "address"
        },
        {
          "internalType": "uint256",
          "name": "tokenId",
          "type": "uint256"
        }
      ],
      "name": "approve",
      "outputs": [],
      "stateMutability": "nonpayable",
      "type": "function"
    },
    {
      "inputs": [
        {
          "internalType": "address",
          "name": "owner",
          "type": "address"
        }
      ],
      "name": "balanceOf",
      "outputs": [
        {
          "internalType": "uint256",
          "name": "",
          "type": "uint256"
        }
      ],
      "stateMutability": "view",
      "type": "function"
    },
    {
      "inputs": [
        {
          "internalType": "uint256",
          "name": "tokenId",
          "type": "uint256"
        }
      ],
      "name": "getApproved",
      "outputs": [
        {
          "internalType": "address",
          "name": "",
          "type": "address"
        }
      ],
      "stateMutability": "view",
      "type": "function"
    },
    {
      "inputs": [
        {
          "internalType": "address",
          "name": "owner",
          "type": "address"
        },
        {
          "internalType": "address",
          "name": "operator",
          "type": "address"
        }
      ],
      "name": "isApprovedForAll",
      "outputs": [
        {
          "internalType": "bool",
          "name": "",
          "type": "bool"
        }
      ],
      "stateMutability": "view",
      "type": "function"
    },
    {
      "inputs": [
        {
          "internalType": "string",
          "name": "_tokenURI",
          "type": "string"
        }
      ],
      "name": "mint",
      "outputs": [
        {
          "internalType": "uint256",
          "name": "",
          "type": "uint256"
        }
      ],
      "stateMutability": "nonpayable",
      "type": "function"
    },
    {
      "inputs": [],
      "name": "name",
      "outputs": [
        {
          "internalType": "string",
          "name": "",
          "type": "string"
        }
      ],
      "stateMutability": "view",
      "type": "function"
    },
    {
      "inputs": [
        {
          "internalType": "uint256",
          "name": "tokenId",
          "type": "uint256"
        }
      ],
      "name": "ownerOf",
      "outputs": [
        {
          "internalType": "address",
          "name": "",
          "type": "address"
        }
      ],
      "stateMutability": "view",
      "type": "function"
    },
    {
      "inputs": [
        {
          "internalType": "address",
          "name": "from",
          "type": "address"
        },
        {
          "internalType": "address",
          "name": "to",
          "type": "address"
        },
        {
          "internalType": "uint256",
          "name": "tokenId",
          "type": "uint256"
        }
      ],
      "name": "safeTransferFrom",
      "outputs": [],
      "stateMutability": "nonpayable",
      "type": "function"
    },
    {
      "inputs": [
        {
          "internalType": "address",
          "name": "from",
          "type": "address"
        },
        {
          "internalType": "address",
          "name": "to",
          "type": "address"
        },
        {
          "internalType": "uint256",
          "name": "tokenId",
          "type": "uint256"
        },
        {
          "internalType": "bytes",
          "name": "data",
          "type": "bytes"
        }
      ],
      "name": "safeTransferFrom",
      "outputs": [],
      "stateMutability": "nonpayable",
      "type": "function"
    },
    {
      "inputs": [
        {
          "internalType": "address",
          "name": "operator",
          "type": "address"
        },
        {
          "internalType": "bool",
          "name": "approved",
          "type": "bool"
        }
      ],
      "name": "setApprovalForAll",
      "outputs": [],
      "stateMutability": "nonpayable",
      "type": "function"
    },
    {
      "inputs": [
        {
          "internalType": "bytes4",
          "name": "interfaceId",
          "type": "bytes4"
        }
      ],
      "name": "supportsInterface",
      "outputs": [
        {
          "internalType": "bool",
          "name": "",
          "type": "bool"
        }
      ],
      "stateMutability": "view",
      "type": "function"
    },
    {
      "inputs": [],
      "name": "symbol",
      "outputs": [
        {
          "internalType": "string",
          "name": "",
          "type": "string"
        }
      ],
      "stateMutability": "view",
      "type": "function"
    },
    {
      "inputs": [],
      "name": "testcase1",
      "outputs": [
        {
          "internalType": "string",
          "name": "",
          "type": "string"
        }
      ],
      "stateMutability": "view",
      "type": "function"
    },
    {
      "inputs": [],
      "name": "tokenCount",
      "outputs": [
        {
          "internalType": "uint256",
          "name": "",
          "type": "uint256"
        }
      ],
      "stateMutability": "view",
      "type": "function"
    },
    {
      "inputs": [
        {
          "internalType": "uint256",
          "name": "tokenId",
          "type": "uint256"
        }
      ],
      "name": "tokenURI",
      "outputs": [
        {
          "internalType": "string",
          "name": "",
          "type": "string"
        }
      ],
      "stateMutability": "view",
      "type": "function"
    },
    {
      "inputs": [
        {
          "internalType": "address",
          "name": "from",
          "type": "address"
        },
        {
          "internalType": "address",
          "name": "to",
          "type": "address"
        },
        {
          "internalType": "uint256",
          "name": "tokenId",
          "type": "uint256"
        }
      ],
      "name": "transferFrom",
      "outputs": [],
      "stateMutability": "nonpayable",
      "type": "function"
    }
  ],
  "bytecode": "0x60806040526040518060400160405280600481526020017f4865797900000000000000000000000000000000000000000000000000000000815250600890816200004a91906200036b565b503480156200005857600080fd5b506040518060400160405280600881526020017f44417070204e46540000000000000000000000000000000000000000000000008152506040518060400160405280600481526020017f44415050000000000000000000000000000000000000000000000000000000008152508160009081620000d691906200036b565b508060019081620000e891906200036b565b50505062000452565b600081519050919050565b7f4e487b7100000000000000000000000000000000000000000000000000000000600052604160045260246000fd5b7f4e487b7100000000000000000000000000000000000000000000000000000000600052602260045260246000fd5b600060028204905060018216806200017357607f821691505b6020821081036200018957620001886200012b565b5b50919050565b60008190508160005260206000209050919050565b60006020601f8301049050919050565b600082821b905092915050565b600060088302620001f37fffffffffffffffffffffffffffffffffffffffffffffffffffffffffffffffff82620001b4565b620001ff8683620001b4565b95508019841693508086168417925050509392505050565b6000819050919050565b6000819050919050565b60006200024c62000246620002408462000217565b62000221565b62000217565b9050919050565b6000819050919050565b62000268836200022b565b62000280620002778262000253565b848454620001c1565b825550505050565b600090565b6200029762000288565b620002a48184846200025d565b505050565b5b81811015620002cc57620002c06000826200028d565b600181019050620002aa565b5050565b601f8211156200031b57620002e5816200018f565b620002f084620001a4565b8101602085101562000300578190505b620003186200030f85620001a4565b830182620002a9565b50505b505050565b600082821c905092915050565b6000620003406000198460080262000320565b1980831691505092915050565b60006200035b83836200032d565b9150826002028217905092915050565b6200037682620000f1565b67ffffffffffffffff811115620003925762000391620000fc565b5b6200039e82546200015a565b620003ab828285620002d0565b600060209050601f831160018114620003e35760008415620003ce578287015190505b620003da85826200034d565b8655506200044a565b601f198416620003f3866200018f565b60005b828110156200041d57848901518255600182019150602085019450602081019050620003f6565b868310156200043d578489015162000439601f8916826200032d565b8355505b6001600288020188555050505b505050505050565b612b6380620004626000396000f3fe608060405234801561001057600080fd5b50600436106101005760003560e01c806395d89b4111610097578063b88d4fde11610066578063b88d4fde146102ad578063c87b56dd146102c9578063d85d3d27146102f9578063e985e9c51461032957610100565b806395d89b41146102375780639f181b5e14610255578063a22cb46514610273578063b272e5121461028f57610100565b806323b872dd116100d357806323b872dd1461019f57806342842e0e146101bb5780636352211e146101d757806370a082311461020757610100565b806301ffc9a71461010557806306fdde0314610135578063081812fc14610153578063095ea7b314610183575b600080fd5b61011f600480360381019061011a91906118f5565b610359565b60405161012c919061193d565b60405180910390f35b61013d61043b565b60405161014a91906119e8565b60405180910390f35b61016d60048036038101906101689190611a40565b6104cd565b60405161017a9190611aae565b60405180910390f35b61019d60048036038101906101989190611af5565b610513565b005b6101b960048036038101906101b49190611b35565b61062a565b005b6101d560048036038101906101d09190611b35565b61068a565b005b6101f160048036038101906101ec9190611a40565b6106aa565b6040516101fe9190611aae565b60405180910390f35b610221600480360381019061021c9190611b88565b61075b565b60405161022e9190611bc4565b60405180910390f35b61023f610812565b60405161024c91906119e8565b60405180910390f35b61025d6108a4565b60405161026a9190611bc4565b60405180910390f35b61028d60048036038101906102889190611c0b565b6108aa565b005b6102976108c0565b6040516102a491906119e8565b60405180910390f35b6102c760048036038101906102c29190611d80565b61094e565b005b6102e360048036038101906102de9190611a40565b6109b0565b6040516102f091906119e8565b60405180910390f35b610313600480360381019061030e9190611ea4565b610ac2565b6040516103209190611bc4565b60405180910390f35b610343600480360381019061033e9190611eed565b610afe565b604051610350919061193d565b60405180910390f35b60007f80ac58cd000000000000000000000000000000000000000000000000000000007bffffffffffffffffffffffffffffffffffffffffffffffffffffffff1916827bffffffffffffffffffffffffffffffffffffffffffffffffffffffff1916148061042457507f5b5e139f000000000000000000000000000000000000000000000000000000007bffffffffffffffffffffffffffffffffffffffffffffffffffffffff1916827bffffffffffffffffffffffffffffffffffffffffffffffffffffffff1916145b80610434575061043382610b92565b5b9050919050565b60606000805461044a90611f5c565b80601f016020809104026020016040519081016040528092919081815260200182805461047690611f5c565b80156104c35780601f10610498576101008083540402835291602001916104c3565b820191906000526020600020905b8154815290600101906020018083116104a657829003601f168201915b5050505050905090565b60006104d882610bfc565b6004600083815260200190815260200160002060009054906101000a900473ffffffffffffffffffffffffffffffffffffffff169050919050565b600061051e826106aa565b90508073ffffffffffffffffffffffffffffffffffffffff168373ffffffffffffffffffffffffffffffffffffffff160361058e576040517f08c379a000000000000000000000000000000000000000000000000000000000815260040161058590611fff565b60405180910390fd5b8073ffffffffffffffffffffffffffffffffffffffff166105ad610c47565b73ffffffffffffffffffffffffffffffffffffffff1614806105dc57506105db816105d6610c47565b610afe565b5b61061b576040517f08c379a000000000000000000000000000000000000000000000000000000000815260040161061290612091565b60405180910390fd5b6106258383610c4f565b505050565b61063b610635610c47565b82610d08565b61067a576040517f08c379a000000000000000000000000000000000000000000000000000000000815260040161067190612123565b60405180910390fd5b610685838383610d9d565b505050565b6106a58383836040518060200160405280600081525061094e565b505050565b6000806002600084815260200190815260200160002060009054906101000a900473ffffffffffffffffffffffffffffffffffffffff169050600073ffffffffffffffffffffffffffffffffffffffff168173ffffffffffffffffffffffffffffffffffffffff1603610752576040517f08c379a00000000000000000000000000000000000000000000000000000000081526004016107499061218f565b60405180910390fd5b80915050919050565b60008073ffffffffffffffffffffffffffffffffffffffff168273ffffffffffffffffffffffffffffffffffffffff16036107cb576040517f08c379a00000000000000000000000000000000000000000000000000000000081526004016107c290612221565b60405180910390fd5b600360008373ffffffffffffffffffffffffffffffffffffffff1673ffffffffffffffffffffffffffffffffffffffff168152602001908152602001600020549050919050565b60606001805461082190611f5c565b80601f016020809104026020016040519081016040528092919081815260200182805461084d90611f5c565b801561089a5780601f1061086f5761010080835404028352916020019161089a565b820191906000526020600020905b81548152906001019060200180831161087d57829003601f168201915b5050505050905090565b60075481565b6108bc6108b5610c47565b8383611003565b5050565b600880546108cd90611f5c565b80601f01602080910402602001604051908101604052809291908181526020018280546108f990611f5c565b80156109465780601f1061091b57610100808354040283529160200191610946565b820191906000526020600020905b81548152906001019060200180831161092957829003601f168201915b505050505081565b61095f610959610c47565b83610d08565b61099e576040517f08c379a000000000000000000000000000000000000000000000000000000000815260040161099590612123565b60405180910390fd5b6109aa8484848461116f565b50505050565b60606109bb82610bfc565b60006006600084815260200190815260200160002080546109db90611f5c565b80601f0160208091040260200160405190810160405280929190818152602001828054610a0790611f5c565b8015610a545780601f10610a2957610100808354040283529160200191610a54565b820191906000526020600020905b815481529060010190602001808311610a3757829003601f168201915b505050505090506000610a656111cb565b90506000815103610a7a578192505050610abd565b600082511115610aaf578082604051602001610a9792919061227d565b60405160208183030381529060405292505050610abd565b610ab8846111e2565b925050505b919050565b600060076000815480929190610ad7906122d0565b9190505550610ae83360075461124a565b610af460075483611268565b6007549050919050565b6000600560008473ffffffffffffffffffffffffffffffffffffffff1673ffffffffffffffffffffffffffffffffffffffff16815260200190815260200160002060008373ffffffffffffffffffffffffffffffffffffffff1673ffffffffffffffffffffffffffffffffffffffff16815260200190815260200160002060009054906101000a900460ff16905092915050565b60007f01ffc9a7000000000000000000000000000000000000000000000000000000007bffffffffffffffffffffffffffffffffffffffffffffffffffffffff1916827bffffffffffffffffffffffffffffffffffffffffffffffffffffffff1916149050919050565b610c05816112d5565b610c44576040517f08c379a0000000000000000000000000000000000000000000000000000000008152600401610c3b9061218f565b60405180910390fd5b50565b600033905090565b816004600083815260200190815260200160002060006101000a81548173ffffffffffffffffffffffffffffffffffffffff021916908373ffffffffffffffffffffffffffffffffffffffff160217905550808273ffffffffffffffffffffffffffffffffffffffff16610cc2836106aa565b73ffffffffffffffffffffffffffffffffffffffff167f8c5be1e5ebec7d5bd14f71427d1e84f3dd0314c0f7b2291e5b200ac8c7c3b92560405160405180910390a45050565b600080610d14836106aa565b90508073ffffffffffffffffffffffffffffffffffffffff168473ffffffffffffffffffffffffffffffffffffffff161480610d565750610d558185610afe565b5b80610d9457508373ffffffffffffffffffffffffffffffffffffffff16610d7c846104cd565b73ffffffffffffffffffffffffffffffffffffffff16145b91505092915050565b8273ffffffffffffffffffffffffffffffffffffffff16610dbd826106aa565b73ffffffffffffffffffffffffffffffffffffffff1614610e13576040517f08c379a0000000000000000000000000000000000000000000000000000000008152600401610e0a9061238a565b60405180910390fd5b600073ffffffffffffffffffffffffffffffffffffffff168273ffffffffffffffffffffffffffffffffffffffff1603610e82576040517f08c379a0000000000000000000000000000000000000000000000000000000008152600401610e799061241c565b60405180910390fd5b610e8d838383611341565b610e98600082610c4f565b6001600360008573ffffffffffffffffffffffffffffffffffffffff1673ffffffffffffffffffffffffffffffffffffffff1681526020019081526020016000206000828254610ee8919061243c565b925050819055506001600360008473ffffffffffffffffffffffffffffffffffffffff1673ffffffffffffffffffffffffffffffffffffffff1681526020019081526020016000206000828254610f3f9190612470565b92505081905550816002600083815260200190815260200160002060006101000a81548173ffffffffffffffffffffffffffffffffffffffff021916908373ffffffffffffffffffffffffffffffffffffffff160217905550808273ffffffffffffffffffffffffffffffffffffffff168473ffffffffffffffffffffffffffffffffffffffff167fddf252ad1be2c89b69c2b068fc378daa952ba7f163c4a11628f55a4df523b3ef60405160405180910390a4610ffe838383611346565b505050565b8173ffffffffffffffffffffffffffffffffffffffff168373ffffffffffffffffffffffffffffffffffffffff1603611071576040517f08c379a0000000000000000000000000000000000000000000000000000000008152600401611068906124f0565b60405180910390fd5b80600560008573ffffffffffffffffffffffffffffffffffffffff1673ffffffffffffffffffffffffffffffffffffffff16815260200190815260200160002060008473ffffffffffffffffffffffffffffffffffffffff1673ffffffffffffffffffffffffffffffffffffffff16815260200190815260200160002060006101000a81548160ff0219169083151502179055508173ffffffffffffffffffffffffffffffffffffffff168373ffffffffffffffffffffffffffffffffffffffff167f17307eab39ab6107e8899845ad3d59bd9653f200f220920489ca2b5937696c3183604051611162919061193d565b60405180910390a3505050565b61117a848484610d9d565b6111868484848461134b565b6111c5576040517f08c379a00000000000000000000000000000000000000000000000000000000081526004016111bc90612582565b60405180910390fd5b50505050565b606060405180602001604052806000815250905090565b60606111ed82610bfc565b60006111f76111cb565b905060008151116112175760405180602001604052806000815250611242565b80611221846114d2565b60405160200161123292919061227d565b6040516020818303038152906040525b915050919050565b611264828260405180602001604052806000815250611632565b5050565b611271826112d5565b6112b0576040517f08c379a00000000000000000000000000000000000000000000000000000000081526004016112a790612614565b60405180910390fd5b806006600084815260200190815260200160002090816112d091906127e0565b505050565b60008073ffffffffffffffffffffffffffffffffffffffff166002600084815260200190815260200160002060009054906101000a900473ffffffffffffffffffffffffffffffffffffffff1673ffffffffffffffffffffffffffffffffffffffff1614159050919050565b505050565b505050565b600061136c8473ffffffffffffffffffffffffffffffffffffffff1661168d565b156114c5578373ffffffffffffffffffffffffffffffffffffffff1663150b7a02611395610c47565b8786866040518563ffffffff1660e01b81526004016113b79493929190612907565b6020604051808303816000875af19250505080156113f357506040513d601f19601f820116820180604052508101906113f09190612968565b60015b611475573d8060008114611423576040519150601f19603f3d011682016040523d82523d6000602084013e611428565b606091505b50600081510361146d576040517f08c379a000000000000000000000000000000000000000000000000000000000815260040161146490612582565b60405180910390fd5b805181602001fd5b63150b7a0260e01b7bffffffffffffffffffffffffffffffffffffffffffffffffffffffff1916817bffffffffffffffffffffffffffffffffffffffffffffffffffffffff1916149150506114ca565b600190505b949350505050565b606060008203611519576040518060400160405280600181526020017f3000000000000000000000000000000000000000000000000000000000000000815250905061162d565b600082905060005b6000821461154b578080611534906122d0565b915050600a8261154491906129c4565b9150611521565b60008167ffffffffffffffff81111561156757611566611c55565b5b6040519080825280601f01601f1916602001820160405280156115995781602001600182028036833780820191505090505b5090505b60008514611626576001826115b2919061243c565b9150600a856115c191906129f5565b60306115cd9190612470565b60f81b8183815181106115e3576115e2612a26565b5b60200101907effffffffffffffffffffffffffffffffffffffffffffffffffffffffffffff1916908160001a905350600a8561161f91906129c4565b945061159d565b8093505050505b919050565b61163c83836116b0565b611649600084848461134b565b611688576040517f08c379a000000000000000000000000000000000000000000000000000000000815260040161167f90612582565b60405180910390fd5b505050565b6000808273ffffffffffffffffffffffffffffffffffffffff163b119050919050565b600073ffffffffffffffffffffffffffffffffffffffff168273ffffffffffffffffffffffffffffffffffffffff160361171f576040517f08c379a000000000000000000000000000000000000000000000000000000000815260040161171690612aa1565b60405180910390fd5b611728816112d5565b15611768576040517f08c379a000000000000000000000000000000000000000000000000000000000815260040161175f90612b0d565b60405180910390fd5b61177460008383611341565b6001600360008473ffffffffffffffffffffffffffffffffffffffff1673ffffffffffffffffffffffffffffffffffffffff16815260200190815260200160002060008282546117c49190612470565b92505081905550816002600083815260200190815260200160002060006101000a81548173ffffffffffffffffffffffffffffffffffffffff021916908373ffffffffffffffffffffffffffffffffffffffff160217905550808273ffffffffffffffffffffffffffffffffffffffff16600073ffffffffffffffffffffffffffffffffffffffff167fddf252ad1be2c89b69c2b068fc378daa952ba7f163c4a11628f55a4df523b3ef60405160405180910390a461188560008383611346565b5050565b6000604051905090565b600080fd5b600080fd5b60007fffffffff0000000000000000000000000000000000000000000000000000000082169050919050565b6118d28161189d565b81146118dd57600080fd5b50565b6000813590506118ef816118c9565b92915050565b60006020828403121561190b5761190a611893565b5b6000611919848285016118e0565b91505092915050565b60008115159050919050565b61193781611922565b82525050565b6000602082019050611952600083018461192e565b92915050565b600081519050919050565b600082825260208201905092915050565b60005b83811015611992578082015181840152602081019050611977565b60008484015250505050565b6000601f19601f8301169050919050565b60006119ba82611958565b6119c48185611963565b93506119d4818560208601611974565b6119dd8161199e565b840191505092915050565b60006020820190508181036000830152611a0281846119af565b905092915050565b6000819050919050565b611a1d81611a0a565b8114611a2857600080fd5b50565b600081359050611a3a81611a14565b92915050565b600060208284031215611a5657611a55611893565b5b6000611a6484828501611a2b565b91505092915050565b600073ffffffffffffffffffffffffffffffffffffffff82169050919050565b6000611a9882611a6d565b9050919050565b611aa881611a8d565b82525050565b6000602082019050611ac36000830184611a9f565b92915050565b611ad281611a8d565b8114611add57600080fd5b50565b600081359050611aef81611ac9565b92915050565b60008060408385031215611b0c57611b0b611893565b5b6000611b1a85828601611ae0565b9250506020611b2b85828601611a2b565b9150509250929050565b600080600060608486031215611b4e57611b4d611893565b5b6000611b5c86828701611ae0565b9350506020611b6d86828701611ae0565b9250506040611b7e86828701611a2b565b9150509250925092565b600060208284031215611b9e57611b9d611893565b5b6000611bac84828501611ae0565b91505092915050565b611bbe81611a0a565b82525050565b6000602082019050611bd96000830184611bb5565b92915050565b611be881611922565b8114611bf357600080fd5b50565b600081359050611c0581611bdf565b92915050565b60008060408385031215611c2257611c21611893565b5b6000611c3085828601611ae0565b9250506020611c4185828601611bf6565b9150509250929050565b600080fd5b600080fd5b7f4e487b7100000000000000000000000000000000000000000000000000000000600052604160045260246000fd5b611c8d8261199e565b810181811067ffffffffffffffff82111715611cac57611cab611c55565b5b80604052505050565b6000611cbf611889565b9050611ccb8282611c84565b919050565b600067ffffffffffffffff821115611ceb57611cea611c55565b5b611cf48261199e565b9050602081019050919050565b82818337600083830152505050565b6000611d23611d1e84611cd0565b611cb5565b905082815260208101848484011115611d3f57611d3e611c50565b5b611d4a848285611d01565b509392505050565b600082601f830112611d6757611d66611c4b565b5b8135611d77848260208601611d10565b91505092915050565b60008060008060808587031215611d9a57611d99611893565b5b6000611da887828801611ae0565b9450506020611db987828801611ae0565b9350506040611dca87828801611a2b565b925050606085013567ffffffffffffffff811115611deb57611dea611898565b5b611df787828801611d52565b91505092959194509250565b600067ffffffffffffffff821115611e1e57611e1d611c55565b5b611e278261199e565b9050602081019050919050565b6000611e47611e4284611e03565b611cb5565b905082815260208101848484011115611e6357611e62611c50565b5b611e6e848285611d01565b509392505050565b600082601f830112611e8b57611e8a611c4b565b5b8135611e9b848260208601611e34565b91505092915050565b600060208284031215611eba57611eb9611893565b5b600082013567ffffffffffffffff811115611ed857611ed7611898565b5b611ee484828501611e76565b91505092915050565b60008060408385031215611f0457611f03611893565b5b6000611f1285828601611ae0565b9250506020611f2385828601611ae0565b9150509250929050565b7f4e487b7100000000000000000000000000000000000000000000000000000000600052602260045260246000fd5b60006002820490506001821680611f7457607f821691505b602082108103611f8757611f86611f2d565b5b50919050565b7f4552433732313a20617070726f76616c20746f2063757272656e74206f776e6560008201527f7200000000000000000000000000000000000000000000000000000000000000602082015250565b6000611fe9602183611963565b9150611ff482611f8d565b604082019050919050565b6000602082019050818103600083015261201881611fdc565b9050919050565b7f4552433732313a20617070726f76652063616c6c6572206973206e6f7420746f60008201527f6b656e206f776e6572206e6f7220617070726f76656420666f7220616c6c0000602082015250565b600061207b603e83611963565b91506120868261201f565b604082019050919050565b600060208201905081810360008301526120aa8161206e565b9050919050565b7f4552433732313a2063616c6c6572206973206e6f7420746f6b656e206f776e6560008201527f72206e6f7220617070726f766564000000000000000000000000000000000000602082015250565b600061210d602e83611963565b9150612118826120b1565b604082019050919050565b6000602082019050818103600083015261213c81612100565b9050919050565b7f4552433732313a20696e76616c696420746f6b656e2049440000000000000000600082015250565b6000612179601883611963565b915061218482612143565b602082019050919050565b600060208201905081810360008301526121a88161216c565b9050919050565b7f4552433732313a2061646472657373207a65726f206973206e6f74206120766160008201527f6c6964206f776e65720000000000000000000000000000000000000000000000602082015250565b600061220b602983611963565b9150612216826121af565b604082019050919050565b6000602082019050818103600083015261223a816121fe565b9050919050565b600081905092915050565b600061225782611958565b6122618185612241565b9350612271818560208601611974565b80840191505092915050565b6000612289828561224c565b9150612295828461224c565b91508190509392505050565b7f4e487b7100000000000000000000000000000000000000000000000000000000600052601160045260246000fd5b60006122db82611a0a565b91507fffffffffffffffffffffffffffffffffffffffffffffffffffffffffffffffff820361230d5761230c6122a1565b5b600182019050919050565b7f4552433732313a207472616e736665722066726f6d20696e636f72726563742060008201527f6f776e6572000000000000000000000000000000000000000000000000000000602082015250565b6000612374602583611963565b915061237f82612318565b604082019050919050565b600060208201905081810360008301526123a381612367565b9050919050565b7f4552433732313a207472616e7366657220746f20746865207a65726f2061646460008201527f7265737300000000000000000000000000000000000000000000000000000000602082015250565b6000612406602483611963565b9150612411826123aa565b604082019050919050565b60006020820190508181036000830152612435816123f9565b9050919050565b600061244782611a0a565b915061245283611a0a565b925082820390508181111561246a576124696122a1565b5b92915050565b600061247b82611a0a565b915061248683611a0a565b925082820190508082111561249e5761249d6122a1565b5b92915050565b7f4552433732313a20617070726f766520746f2063616c6c657200000000000000600082015250565b60006124da601983611963565b91506124e5826124a4565b602082019050919050565b60006020820190508181036000830152612509816124cd565b9050919050565b7f4552433732313a207472616e7366657220746f206e6f6e20455243373231526560008201527f63656976657220696d706c656d656e7465720000000000000000000000000000602082015250565b600061256c603283611963565b915061257782612510565b604082019050919050565b6000602082019050818103600083015261259b8161255f565b9050919050565b7f45524337323155524953746f726167653a2055524920736574206f66206e6f6e60008201527f6578697374656e7420746f6b656e000000000000000000000000000000000000602082015250565b60006125fe602e83611963565b9150612609826125a2565b604082019050919050565b6000602082019050818103600083015261262d816125f1565b9050919050565b60008190508160005260206000209050919050565b60006020601f8301049050919050565b600082821b905092915050565b6000600883026126967fffffffffffffffffffffffffffffffffffffffffffffffffffffffffffffffff82612659565b6126a08683612659565b95508019841693508086168417925050509392505050565b6000819050919050565b60006126dd6126d86126d384611a0a565b6126b8565b611a0a565b9050919050565b6000819050919050565b6126f7836126c2565b61270b612703826126e4565b848454612666565b825550505050565b600090565b612720612713565b61272b8184846126ee565b505050565b5b8181101561274f57612744600082612718565b600181019050612731565b5050565b601f8211156127945761276581612634565b61276e84612649565b8101602085101561277d578190505b61279161278985612649565b830182612730565b50505b505050565b600082821c905092915050565b60006127b760001984600802612799565b1980831691505092915050565b60006127d083836127a6565b9150826002028217905092915050565b6127e982611958565b67ffffffffffffffff81111561280257612801611c55565b5b61280c8254611f5c565b612817828285612753565b600060209050601f83116001811461284a5760008415612838578287015190505b61284285826127c4565b8655506128aa565b601f19841661285886612634565b60005b828110156128805784890151825560018201915060208501945060208101905061285b565b8683101561289d5784890151612899601f8916826127a6565b8355505b6001600288020188555050505b505050505050565b600081519050919050565b600082825260208201905092915050565b60006128d9826128b2565b6128e381856128bd565b93506128f3818560208601611974565b6128fc8161199e565b840191505092915050565b600060808201905061291c6000830187611a9f565b6129296020830186611a9f565b6129366040830185611bb5565b818103606083015261294881846128ce565b905095945050505050565b600081519050612962816118c9565b92915050565b60006020828403121561297e5761297d611893565b5b600061298c84828501612953565b91505092915050565b7f4e487b7100000000000000000000000000000000000000000000000000000000600052601260045260246000fd5b60006129cf82611a0a565b91506129da83611a0a565b9250826129ea576129e9612995565b5b828204905092915050565b6000612a0082611a0a565b9150612a0b83611a0a565b925082612a1b57612a1a612995565b5b828206905092915050565b7f4e487b7100000000000000000000000000000000000000000000000000000000600052603260045260246000fd5b7f4552433732313a206d696e7420746f20746865207a65726f2061646472657373600082015250565b6000612a8b602083611963565b9150612a9682612a55565b602082019050919050565b60006020820190508181036000830152612aba81612a7e565b9050919050565b7f4552433732313a20746f6b656e20616c7265616479206d696e74656400000000600082015250565b6000612af7601c83611963565b9150612b0282612ac1565b602082019050919050565b60006020820190508181036000830152612b2681612aea565b905091905056fea2646970667358221220e7dd7be25dadf89fc85fc22244c6b9028d84b7b66517a4f700480ef8c51c803464736f6c63430008110033",
  "linkReferences": {},
  "deployedLinkReferences": {}
}