{
  "_format": "hh-sol-artifact-1",
  "contractName": "Marketplace",
  "sourceName": "contracts/Marketplace.sol",
  "abi": [
    {
      "inputs": [
        {
          "internalType": "uint256",
          "name": "_feePercent",
          "type": "uint256"
        }
      ],
      "stateMutability": "nonpayable",
      "type": "constructor"
    },
    {
      "anonymous": false,
      "inputs": [
        {
          "indexed": false,
          "internalType": "uint256",
          "name": "itemId",
          "type": "uint256"
        },
        {
          "indexed": true,
          "internalType": "address",
          "name": "nft",
          "type": "address"
        },
        {
          "indexed": false,
          "internalType": "uint256",
          "name": "tokenId",
          "type": "uint256"
        },
        {
          "indexed": false,
          "internalType": "uint256",
          "name": "price",
          "type": "uint256"
        },
        {
          "indexed": true,
          "internalType": "address",
          "name": "seller",
          "type": "address"
        },
        {
          "indexed": true,
          "internalType": "address",
          "name": "buyer",
          "type": "address"
        }
      ],
      "name": "Bought",
      "type": "event"
    },
    {
      "anonymous": false,
      "inputs": [
        {
          "indexed": false,
          "internalType": "uint256",
          "name": "itemId",
          "type": "uint256"
        },
        {
          "indexed": true,
          "internalType": "address",
          "name": "nft",
          "type": "address"
        },
        {
          "indexed": false,
          "internalType": "uint256",
          "name": "tokenId",
          "type": "uint256"
        },
        {
          "indexed": false,
          "internalType": "uint256",
          "name": "price",
          "type": "uint256"
        },
        {
          "indexed": true,
          "internalType": "address",
          "name": "seller",
          "type": "address"
        }
      ],
      "name": "Offered",
      "type": "event"
    },
    {
      "inputs": [],
      "name": "feeAccount",
      "outputs": [
        {
          "internalType": "address payable",
          "name": "",
          "type": "address"
        }
      ],
      "stateMutability": "view",
      "type": "function"
    },
    {
      "inputs": [],
      "name": "feePercent",
      "outputs": [
        {
          "internalType": "uint256",
          "name": "",
          "type": "uint256"
        }
      ],
      "stateMutability": "view",
      "type": "function"
    },
    {
      "inputs": [
        {
          "internalType": "uint256",
          "name": "_itemId",
          "type": "uint256"
        }
      ],
      "name": "getTotalPrice",
      "outputs": [
        {
          "internalType": "uint256",
          "name": "",
          "type": "uint256"
        }
      ],
      "stateMutability": "view",
      "type": "function"
    },
    {
      "inputs": [],
      "name": "itemCount",
      "outputs": [
        {
          "internalType": "uint256",
          "name": "",
          "type": "uint256"
        }
      ],
      "stateMutability": "view",
      "type": "function"
    },
    {
      "inputs": [
        {
          "internalType": "uint256",
          "name": "",
          "type": "uint256"
        }
      ],
      "name": "items",
      "outputs": [
        {
          "internalType": "uint256",
          "name": "itemId",
          "type": "uint256"
        },
        {
          "internalType": "contract IERC721",
          "name": "nft",
          "type": "address"
        },
        {
          "internalType": "uint256",
          "name": "tokenId",
          "type": "uint256"
        },
        {
          "internalType": "uint256",
          "name": "price",
          "type": "uint256"
        },
        {
          "internalType": "address payable",
          "name": "seller",
          "type": "address"
        },
        {
          "internalType": "bool",
          "name": "sold",
          "type": "bool"
        }
      ],
      "stateMutability": "view",
      "type": "function"
    },
    {
      "inputs": [
        {
          "internalType": "contract IERC721",
          "name": "_nft",
          "type": "address"
        },
        {
          "internalType": "uint256",
          "name": "_tokenId",
          "type": "uint256"
        },
        {
          "internalType": "uint256",
          "name": "_price",
          "type": "uint256"
        }
      ],
      "name": "makeItem",
      "outputs": [],
      "stateMutability": "nonpayable",
      "type": "function"
    },
    {
      "inputs": [],
      "name": "myTokVal",
      "outputs": [
        {
          "internalType": "uint256",
          "name": "",
          "type": "uint256"
        }
      ],
      "stateMutability": "view",
      "type": "function"
    },
    {
      "inputs": [
        {
          "internalType": "uint256",
          "name": "_itemId",
          "type": "uint256"
        }
      ],
      "name": "purchaseItem",
      "outputs": [],
      "stateMutability": "payable",
      "type": "function"
    }
  ],
  "bytecode": "0x60c06040526103e860025534801561001657600080fd5b50604051620011e1380380620011e1833981810160405281019061003a91906100bf565b60016000819055503373ffffffffffffffffffffffffffffffffffffffff1660808173ffffffffffffffffffffffffffffffffffffffff16815250508060a08181525050506100ec565b600080fd5b6000819050919050565b61009c81610089565b81146100a757600080fd5b50565b6000815190506100b981610093565b92915050565b6000602082840312156100d5576100d4610084565b5b60006100e3848285016100aa565b91505092915050565b60805160a0516110c1620001206000396000818161022201526102d30152600081816101f801526104f801526110c16000f3fe60806040526004361061007b5760003560e01c8063bfb231d21161004e578063bfb231d21461012c578063ca7dd3751461016e578063d38ea5bf146101ab578063fa00afc7146101c75761007b565b8063273d355f1461008057806365e17c9d146100ab5780636bfb0d01146100d65780637fd6f15c14610101575b600080fd5b34801561008c57600080fd5b506100956101f0565b6040516100a291906109e7565b60405180910390f35b3480156100b757600080fd5b506100c06101f6565b6040516100cd9190610a43565b60405180910390f35b3480156100e257600080fd5b506100eb61021a565b6040516100f891906109e7565b60405180910390f35b34801561010d57600080fd5b50610116610220565b60405161012391906109e7565b60405180910390f35b34801561013857600080fd5b50610153600480360381019061014e9190610a8f565b610244565b60405161016596959493929190610b36565b60405180910390f35b34801561017a57600080fd5b5061019560048036038101906101909190610a8f565b6102cd565b6040516101a291906109e7565b60405180910390f35b6101c560048036038101906101c09190610a8f565b610330565b005b3480156101d357600080fd5b506101ee60048036038101906101e99190610be7565b6106fd565b005b60025481565b7f000000000000000000000000000000000000000000000000000000000000000081565b60015481565b7f000000000000000000000000000000000000000000000000000000000000000081565b60036020528060005260406000206000915090508060000154908060010160009054906101000a900473ffffffffffffffffffffffffffffffffffffffff16908060020154908060030154908060040160009054906101000a900473ffffffffffffffffffffffffffffffffffffffff16908060040160149054906101000a900460ff16905086565b600060647f000000000000000000000000000000000000000000000000000000000000000060646102fe9190610c69565b600360008581526020019081526020016000206003015461031f9190610c9d565b6103299190610d0e565b9050919050565b600260005403610375576040517f08c379a000000000000000000000000000000000000000000000000000000000815260040161036c90610d9c565b60405180910390fd5b60026000819055506000610388826102cd565b905060006003600084815260200190815260200160002090506000831180156103b357506001548311155b6103f2576040517f08c379a00000000000000000000000000000000000000000000000000000000081526004016103e990610e08565b60405180910390fd5b81341015610435576040517f08c379a000000000000000000000000000000000000000000000000000000000815260040161042c90610e9a565b60405180910390fd5b8060040160149054906101000a900460ff1615610487576040517f08c379a000000000000000000000000000000000000000000000000000000000815260040161047e90610f06565b60405180910390fd5b8060040160009054906101000a900473ffffffffffffffffffffffffffffffffffffffff1673ffffffffffffffffffffffffffffffffffffffff166108fc82600301549081150290604051600060405180830381858888f193505050501580156104f5573d6000803e3d6000fd5b507f000000000000000000000000000000000000000000000000000000000000000073ffffffffffffffffffffffffffffffffffffffff166108fc8260030154846105409190610f26565b9081150290604051600060405180830381858888f1935050505015801561056b573d6000803e3d6000fd5b5060018160040160146101000a81548160ff0219169083151502179055508060010160009054906101000a900473ffffffffffffffffffffffffffffffffffffffff1673ffffffffffffffffffffffffffffffffffffffff166323b872dd303384600201546040518463ffffffff1660e01b81526004016105ee93929190610f69565b600060405180830381600087803b15801561060857600080fd5b505af115801561061c573d6000803e3d6000fd5b505050503373ffffffffffffffffffffffffffffffffffffffff168160040160009054906101000a900473ffffffffffffffffffffffffffffffffffffffff1673ffffffffffffffffffffffffffffffffffffffff168260010160009054906101000a900473ffffffffffffffffffffffffffffffffffffffff1673ffffffffffffffffffffffffffffffffffffffff167f8b4c9c8a607d67b321582dd8461041b1dc2ceeca70c8b7f37f8e02095cf2e76d86856002015486600301546040516106e893929190610fa0565b60405180910390a45050600160008190555050565b600260005403610742576040517f08c379a000000000000000000000000000000000000000000000000000000000815260040161073990610d9c565b60405180910390fd5b60026000819055506000811161078d576040517f08c379a000000000000000000000000000000000000000000000000000000000815260040161078490611023565b60405180910390fd5b600160008154809291906107a090611043565b91905055508273ffffffffffffffffffffffffffffffffffffffff166323b872dd3330856040518463ffffffff1660e01b81526004016107e293929190610f69565b600060405180830381600087803b1580156107fc57600080fd5b505af1158015610810573d6000803e3d6000fd5b505050506040518060c0016040528060015481526020018473ffffffffffffffffffffffffffffffffffffffff1681526020018381526020018281526020013373ffffffffffffffffffffffffffffffffffffffff168152602001600015158152506003600060015481526020019081526020016000206000820151816000015560208201518160010160006101000a81548173ffffffffffffffffffffffffffffffffffffffff021916908373ffffffffffffffffffffffffffffffffffffffff160217905550604082015181600201556060820151816003015560808201518160040160006101000a81548173ffffffffffffffffffffffffffffffffffffffff021916908373ffffffffffffffffffffffffffffffffffffffff16021790555060a08201518160040160146101000a81548160ff0219169083151502179055509050503373ffffffffffffffffffffffffffffffffffffffff168373ffffffffffffffffffffffffffffffffffffffff167f655a0cf9c8db81512be9a76dc1c5ae5380b8816ce6ad659cd61b715e2999d59a60015485856040516109b993929190610fa0565b60405180910390a36001600081905550505050565b6000819050919050565b6109e1816109ce565b82525050565b60006020820190506109fc60008301846109d8565b92915050565b600073ffffffffffffffffffffffffffffffffffffffff82169050919050565b6000610a2d82610a02565b9050919050565b610a3d81610a22565b82525050565b6000602082019050610a586000830184610a34565b92915050565b600080fd5b610a6c816109ce565b8114610a7757600080fd5b50565b600081359050610a8981610a63565b92915050565b600060208284031215610aa557610aa4610a5e565b5b6000610ab384828501610a7a565b91505092915050565b6000819050919050565b6000610ae1610adc610ad784610a02565b610abc565b610a02565b9050919050565b6000610af382610ac6565b9050919050565b6000610b0582610ae8565b9050919050565b610b1581610afa565b82525050565b60008115159050919050565b610b3081610b1b565b82525050565b600060c082019050610b4b60008301896109d8565b610b586020830188610b0c565b610b6560408301876109d8565b610b7260608301866109d8565b610b7f6080830185610a34565b610b8c60a0830184610b27565b979650505050505050565b6000610ba282610a02565b9050919050565b6000610bb482610b97565b9050919050565b610bc481610ba9565b8114610bcf57600080fd5b50565b600081359050610be181610bbb565b92915050565b600080600060608486031215610c0057610bff610a5e565b5b6000610c0e86828701610bd2565b9350506020610c1f86828701610a7a565b9250506040610c3086828701610a7a565b9150509250925092565b7f4e487b7100000000000000000000000000000000000000000000000000000000600052601160045260246000fd5b6000610c74826109ce565b9150610c7f836109ce565b9250828201905080821115610c9757610c96610c3a565b5b92915050565b6000610ca8826109ce565b9150610cb3836109ce565b9250828202610cc1816109ce565b91508282048414831517610cd857610cd7610c3a565b5b5092915050565b7f4e487b7100000000000000000000000000000000000000000000000000000000600052601260045260246000fd5b6000610d19826109ce565b9150610d24836109ce565b925082610d3457610d33610cdf565b5b828204905092915050565b600082825260208201905092915050565b7f5265656e7472616e637947756172643a207265656e7472616e742063616c6c00600082015250565b6000610d86601f83610d3f565b9150610d9182610d50565b602082019050919050565b60006020820190508181036000830152610db581610d79565b9050919050565b7f6974656d20646f65736e27742065786973740000000000000000000000000000600082015250565b6000610df2601283610d3f565b9150610dfd82610dbc565b602082019050919050565b60006020820190508181036000830152610e2181610de5565b9050919050565b7f6e6f7420656e6f75676820657468657220746f20636f766572206974656d207060008201527f7269636520616e64206d61726b65742066656500000000000000000000000000602082015250565b6000610e84603383610d3f565b9150610e8f82610e28565b604082019050919050565b60006020820190508181036000830152610eb381610e77565b9050919050565b7f6974656d20616c726561647920736f6c64000000000000000000000000000000600082015250565b6000610ef0601183610d3f565b9150610efb82610eba565b602082019050919050565b60006020820190508181036000830152610f1f81610ee3565b9050919050565b6000610f31826109ce565b9150610f3c836109ce565b9250828203905081811115610f5457610f53610c3a565b5b92915050565b610f6381610b97565b82525050565b6000606082019050610f7e6000830186610f5a565b610f8b6020830185610f5a565b610f9860408301846109d8565b949350505050565b6000606082019050610fb560008301866109d8565b610fc260208301856109d8565b610fcf60408301846109d8565b949350505050565b7f5072696365206d7573742062652067726561746572207468616e207a65726f00600082015250565b600061100d601f83610d3f565b915061101882610fd7565b602082019050919050565b6000602082019050818103600083015261103c81611000565b9050919050565b600061104e826109ce565b91507fffffffffffffffffffffffffffffffffffffffffffffffffffffffffffffffff82036110805761107f610c3a565b5b60018201905091905056fea26469706673582212200560d28e29176b56567fab3d85b4d90743b9d23bf6e4b55c4ad0c3bb1913128864736f6c63430008110033",
  "linkReferences": {},
  "deployedLinkReferences": {}
}